:10000000F07F00105D120000D1120000D11200003C
:10001000D1120000D1120000D11200000000000037
:10002000000000000000000000000000D1120000ED
:10003000D112000000000000D1120000D112000017
:10004000D112000065070000D1120000D11200009B
:10005000D1120000D1120000D1120000D112000014
:10006000D1120000D1120000D1120000D112000004
:10007000D1120000D1120000D1120000D1120000F4
:10008000D1120000D1120000D1120000D1120000E4
:10009000D1120000D1120000D1120000D1120000D4
:1000A00079100000D1120000A9090000D11200004F
:1000B000D1120000D1120000D1120000D1120000B4
:1000C000D1120000D1120000D112000010B540F290
:1000D0002404C1F20004237863B940F20000C0F2A6
:1000E000000028B143F29C10C0F20000AFF3008082
:1000F0000121217010BD00BF08B540F20003C0F21D
:1001000000034BB143F29C1040F22801C0F2000002
:10011000C1F20001AFF3008040F22000C1F2000004
:10012000016829B140F20003C0F2000303B198470F
:1001300008BD00BF80B400AF40F24803C1F2000325
:100140004FF000021A6040F24C03C1F200034FF07E
:1001500000021A60BD4680BC704700BF80B485B005
:1001600000AF786040F24803C1F200031B687B7364
:1001700040F24C03C1F200031B68BB73BB7B03F16D
:100180000103FB737A7BFB7B9A4202D14FF00003A1
:1001900065E0B97B40F27023C1F200031B78DAB24C
:1001A00040F27423C1F200034FEA81110B44DA706C
:1001B000B97B44F20803C4F200031A6840F27423C6
:1001C000C1F200034FEA81110B4403F104031A60EA
:1001D0004CF21803C2F209034FF400621A604FF0A8
:1001E0000003BB6014E0B87BB968BA687B6813444D
:1001F0001A7840F27423C1F200034FEA80100144E0
:100200000B4403F108039A71BB6803F10103BB605F
:10021000BB68312BE7DDB97B40F24403C1F2000338
:100220001B78DAB240F27423C1F200034FEA811165
:100230000B445A7040F24403C1F200034FF0000235
:100240001A7040F24C03C1F200031B6803F1010273
:1002500040F24C03C1F200031A604FF0010318464C
:1002600007F11407BD4680BC704700BF80B582B05F
:1002700000AF40F24803C1F200031B68BB7140F2BB
:100280004C03C1F200031B68FB71BA79FB799A42F7
:1002900009D14CF21C03C2F209034FF400621A6048
:1002A0004FF000031CE040F27423C1F20003BA795E
:1002B0004FEA821213444FF0820019464FF0400279
:1002C00001F070FF40F24803C1F200031B6803F124
:1002D000010240F24803C1F200031A604FF001032B
:1002E000184607F10807BD4680BD00BF80B582B043
:1002F00000AF02460B46FA71BB71BB7903F00103F4
:10030000002B01D1FFF7B2FF07F10807BD4680BD02
:1003100080B483B000AF02460B46FA71BB7107F19F
:100320000C07BD4680BC704780B590B000AFF86048
:10033000B9607A607B681B68FB63FB685B780F2B96
:1003400000F2A88101A252F823F000BF8D03000043
:100350009703000095060000D9030000FD0300008C
:100360002504000049040000710400009504000009
:10037000BD040000E10400009506000095060000A1
:10038000950600007505000009050000BB684FF0E8
:1003900000021A6081E1FB685B881A4640F2400364
:1003A000C1F200031B681A4440F24003C1F200038B
:1003B0001A6040F24003C1F200031B68002B06D113
:1003C00040F24003C1F200034FF0FF321A60BB68F5
:1003D0004FF000021A6060E14CF21403C2F209030C
:1003E0001B6803F40063002B0CBF00220122FB6B8F
:1003F0001A70BB684FF001021A604EE1FB685B881F
:10040000002B07D04CF21803C2F209034FF400622C
:100410001A6042E14CF21C03C2F209034FF400627D
:100420001A603AE14CF29403C2F209031B6803F02C
:100430008053002B0CBF00220122FB6B1A70BB689B
:100440004FF001021A6028E1FB685B88002B07D09F
:100450004CF29803C2F209034FF080521A601CE17B
:100460004CF29C03C2F209034FF080521A6014E16F
:100470004CF29403C2F209031B6803F00053002BF3
:100480000CBF00220122FB6B1A70BB684FF0010207
:100490001A6002E1FB685B88002B07D04CF29803DE
:1004A000C2F209034FF000521A60F6E04CF29C03CE
:1004B000C2F209034FF000521A60EEE04CF234032E
:1004C000C2F209031B6803F00053002B0CBF00228B
:1004D0000122FB6B1A70BB684FF001021A60DCE06E
:1004E000FB685B88002B07D04CF23803C2F209038B
:1004F0004FF000521A60D0E04CF23C03C2F2090304
:100500004FF000521A60C8E04FF03603BB6240F271
:100510000403C1F200031B6807F1280107F114026C
:100520000846114698477B69DAB2FB6B1A70FB6B81
:1005300003F10103BA69D2B21A70FB6B03F1020333
:10054000BA694FEA1222D2B21A70FB6B03F10303AD
:10055000BA694FEA1242D2B21A70FB6B03F104037C
:10056000BA694FEA1262D2B21A70BB684FF0050244
:100570001A6092E04FF03A03BB6240F20403C1F20A
:1005800000031B6807F1280107F114020846114611
:1005900098477B69DAB2FB6B1A70FB6B03F10103BE
:1005A000BA69D2B21A70FB6B03F10203BA694FEA5F
:1005B0001222D2B21A70FB6B03F10303BA694FEA3D
:1005C0001242D2B21A70FB6B03F10403BA694FEA0C
:1005D0001262D2B21A70FB6B03F10503FA69D2B250
:1005E0001A70FB6B03F10603FA694FEA1222D2B2CA
:1005F0001A70FB6B03F10703FA694FEA1242D2B299
:100600001A70FB6B03F10803FA694FEA1262D2B267
:100610001A70FB6B03F109033A6AD2B21A70FB6BD2
:1006200003F10A033A6A4FEA1222D2B21A70FB6B44
:1006300003F10B033A6A4FEA1242D2B21A70FB6B13
:1006400003F10C033A6A4FEA1262D2B21A70FB6BE2
:1006500003F10D037A6AD2B21A70FB6B03F10E0339
:100660007A6A4FEA1222D2B21A70FB6B03F10F03BF
:100670007A6A4FEA1242D2B21A70FB6B03F110038E
:100680007A6A4FEA1262D2B21A70BB684FF0110256
:100690001A6002E04FF0000301E04FF0010318463A
:1006A00007F14007BD4680BD80B500AF01F06EFB8D
:1006B00043F20400C0F2000002F072F94FF00200B1
:1006C00040F22931C0F2000140F25002C1F20002B2
:1006D00001F036FB4FF0010001F000FD4FF0000388
:1006E0001846BD4680BD00BF80B400AF44F204038D
:1006F000C4F200034FF002021A6040F27023C1F20C
:1007000000034FF000021A7044F20C03C4F200031D
:100710004FF004021A6044F21803C4F200034FF6CB
:10072000FF72CCF24F321A6044F21403C4F2000399
:100730004FF003021A604EF20013CEF200034EF2A5
:100740000012CEF20002126842F002021A6044F275
:100750000403C4F200034FF001021A60BD4680BCDE
:10076000704700BF80B400AF44F20003C4F200033E
:100770001B6803F00103DBB2002B19D040F2702399
:10078000C1F200031B78DBB203F10103DAB240F2DD
:100790007023C1F200031A7044F20003C4F2000394
:1007A00044F20002C4F20002126842F001021A6030
:1007B000BD4680BC704700BF80B400AF4CF2C4039C
:1007C000C4F20F034CF2C402C4F20F02126842F0EA
:1007D00000521A6044F21013C5F200034FF00002F9
:1007E0001A6044F23013C5F200034FF000021A60A1
:1007F00044F25013C5F200034FF000021A6044F2B5
:100800007013C5F200034FF000021A6044F2901317
:10081000C5F200034FF000021A6044F2B013C5F2B3
:1008200000034FF000021A6044F2D013C5F2000337
:100830004FF000021A6044F2F013C5F200034FF0CB
:1008400000021A6044F20803C5F200034FF0FF02F1
:100850001A6044F21003C5F200034FF0FF021A6061
:1008600044F2A823C1F2000348F20802C4F20802CD
:100870001A6044F2B822C1F2000244F2A823C1F285
:1008800000035A6040F26022C1F2000244F2A82341
:10089000C1F200039A6044F2A823C1F2000349F2B6
:1008A0003202C8F60002DA6040F26023C1F20003AF
:1008B00048F20802C4F208021A6044F27422C1F23B
:1008C000000240F26023C1F200035A6044F2A82201
:1008D000C1F2000240F26023C1F200039A6040F2CC
:1008E0006023C1F2000349F23202C8F60002DA6066
:1008F0004EF20013CEF200034EF20012CEF20002CE
:10090000126822F080621A6044F23003C5F20003DC
:100910004FF001021A6044F23003C5F200031B6875
:1009200003F00103002BF6D044F20013C5F20003DC
:1009300044F2A822C1F2000212681A6044F20413C1
:10094000C5F2000344F2A822C1F2000252681A6004
:1009500044F20813C5F2000344F2A822C1F20002D7
:1009600092681A6044F20C13C5F2000344F2A82204
:10097000C1F20002D2681A6044F21013C5F20003FB
:100980004DF202021A6040F25C23C1F200034FF004
:1009900000021A6044F2EC23C1F200034FF000029F
:1009A0001A60BD4680BC704780B400AF44F20003BB
:1009B000C5F200031B6803F00103DBB2002B43D038
:1009C00044F20403C5F200031B6803F00103DBB229
:1009D000002B17D044F20803C5F2000344F20802CA
:1009E000C5F20002126842F001021A6040F25C2374
:1009F000C1F200031B6803F1010240F25C23C1F263
:100A000000031A6044F20C03C5F200031B6803F0F4
:100A10000103DBB2002B17D044F21003C5F2000330
:100A200044F21002C5F20002126842F001021A609C
:100A300044F2EC23C1F200031B6803F1010244F20B
:100A4000EC23C1F200031A60BD4680BC704700BFB2
:100A500080B400AF4CF25803C2F209034FF40072A5
:100A60001A6048F22403C4F2080348F22402C4F2D4
:100A70000802126842F001021A6048F20403C4F24C
:100A8000080348F20402C4F20802126842F00202AB
:100A90001A6044F21013C5F2000344F21012C5F2BA
:100AA0000002126842F001021A604EF20013CEF208
:100AB00000034EF20012CEF20002126842F0806291
:100AC0001A604CF25C03C2F209034FF400721A6020
:100AD000BD4680BC704700BF80B500AF4FF00D0031
:100AE00047F6FF7100F0EAFD4FF0120042F62231A6
:100AF00000F0E4FD4FF0140041F24B3100F0DEFD58
:100B00004FF0200040F2011100F0D8FD4FF002003C
:100B100040F6881100F0D2FD4FF003004FF029019C
:100B200000F0CCFD00F0E2FD034603F04003002B93
:100B3000F8D04FF0610000F0E7FD00F0D7FD03466C
:100B400003F00403002BF8D04FF0620000F0DCFD4E
:100B5000BD4680BD80B500AF4FF00D0047F6FF7178
:100B600000F0ACFD4FF0120042F6223100F0A6FD7D
:100B70004FF0140043F24B3100F0A0FD4FF00200A3
:100B800040F6891100F09AFD4FF003004FF0290163
:100B900000F094FD00F0AAFD034603F04003002B93
:100BA000F8D04FF0610000F0AFFD00F09FFD03466C
:100BB00003F00403002BF8D04FF0630000F0A4FD15
:100BC000BD4680BD80B584B000AF4FF000037B60B0
:100BD0004CF29803C2F209034FF080521A60FFF7FB
:100BE000A9FA00F029FCFFF7E7FDFFF731FFFFF757
:100BF00073FFA8E040F25C23C1F200031B68002BE6
:100C000006D144F2EC23C1F200031B68002BF1D0A3
:100C100040F25C23C1F200031B6803F00103DBB266
:100C2000002B15D040F20803C1F200031B687B6063
:100C300040F20C03C1F200031A6840F20803C1F24B
:100C400000031A6040F20C03C1F200037A681A60D4
:100C500044F2EC23C1F200031B68002B0DD040F2DC
:100C60004403C1F200031B78DBB243F00203DAB2A3
:100C700040F24403C1F200031A7040F25C23C1F257
:100C800000031B68002B3AD040F25C23C1F2000342
:100C90001B68012B0DD940F24403C1F200031B78FD
:100CA000DBB243F00103DAB240F24403C1F20003C5
:100CB0001A7040F20C03C1F200031B681846FFF7DC
:100CC0004DFA0346002B0CD040F24003C1F2000362
:100CD0001B6803F1FF3240F24003C1F200031A60C7
:100CE0000DE040F24403C1F200031B78DBB243F095
:100CF0000403DAB240F24403C1F200031A704FF069
:100D0000820001F00DFA0346FB72FB7A03F0200328
:100D1000002B01D1FFF7AAFAFB7A03F04003002B66
:100D200001D1FFF7A3FA01F0BDFB40F25C23C1F251
:100D300000034FF000021A6044F2EC23C1F20003FA
:100D40004FF000021A6040F24003C1F200031B683A
:100D5000002B7FF44FAF4CF29C03C2F209034FF01B
:100D600080521A6007F11007BD4680BD80B500AF04
:100D700000F058FBFFF7B8FCFFF796FC00E000BF5F
:100D800001F090FB40F24003C1F200031B68002B0E
:100D9000F5D0FFF717FFF3E780B584B000AFF86038
:100DA000B9607A60FB685B78212B13D0222B1FD0AF
:100DB000202B1AD17B681B6840F21000C1F20000A2
:100DC00019464FF0070202F055F8BB684FF00702D2
:100DD0001A600EE040F21003C1F200037A6813605B
:100DE000BB684FF007021A6003E04FF0000302E017
:100DF00000BF4FF00103184607F11007BD4680BD44
:100E000080B584B000AF02460B46FA71BB7140F268
:100E1000C010C1F2000000F011FA03463F2B28DD9C
:100E2000FB79184640F26401C1F200014FF0400224
:100E300001F020FA0346FB604FF00003BB6013E0B3
:100E4000BA6840F26403C1F200039B5C40F2C01038
:100E5000C1F20000194600F077F90346002B0AD0D2
:100E6000BB6803F10103BB60BA68FB689A42E7DB29
:100E700002E000BF00E000BF07F11007BD4680BDE3
:100E800080B584B000AF03463960FB7140F2AC031B
:100E9000C1F200034FF000021A603B68002B06D03D
:100EA00040F2B003C1F200034FF000021A6040F2BA
:100EB000B003C1F200031B68002B37D14FF00003D1
:100EC000FB6013E0FA6840F26403C1F200031344CC
:100ED00040F2B410C1F20000194600F063F9034675
:100EE000002B07D0FB6803F10103FB60FB683F2B7D
:100EF000E8DD00E000BFFB79184640F26401C1F272
:100F00000001FA6801F04EF940F2AC03C1F20003AF
:100F10004FF001021A60FB683F2B08DC40F2B0037F
:100F2000C1F200034FF001021A6000E000BF07F1B8
:100F30001007BD4680BD00BF80B582B000AF02463D
:100F40000B46FA71BB71FB7918464FF00001FFF7B1
:100F500097FF07F10807BD4680BD00BF80B582B08E
:100F600000AF0346FB8040F2AC03C1F200031B68F4
:100F7000002B0ED140F2B410C1F2000000F042F993
:100F80000346002B05D04FF082004FF00101FFF720
:100F900077FF07F10807BD4680BD00BF80B483B06E
:100FA00000AF0346FB71FB7903F01003002B06D062
:100FB00040F2AC03C1F200034FF000021A6007F1E7
:100FC0000C07BD4680BC704780B500AF40F2B4103E
:100FD000C1F2000040F2B401C1F2000100F09EF83D
:100FE00040F2C010C1F2000040F23411C1F2000121
:100FF00000F094F840F2AC03C1F200034FF000029D
:101000001A6040F2B003C1F200034FF001021A600F
:10101000BD4680BD80B582B000AF78607B68DBB232
:1010200040F2B410C1F20000194600F08DF80346FA
:10103000002B01D07B6801E04FF0FF33184607F129
:101040000807BD4680BD00BF80B582B000AF07F184
:10105000070340F2C010C1F20000194600F0A2F8E8
:101060000346002B01D0FB7901E04FF0FF33184617
:1010700007F10807BD4680BD80B500AF01F012FA48
:10108000BD4680BD80B500AF00F080FE43F2B000E9
:10109000C0F2000001F084FC4FF0010040F69951CD
:1010A000C0F2000140F2A402C1F2000200F048FECA
:1010B0004FF081004FF0000100F082FF4FF08200FE
:1010C00040F63971C0F2000100F07AFF4FF00500E0
:1010D00040F60161C0F2000100F072FF40F65D7061
:1010E000C0F2000000F0CAFF40F69D70C0F20000A0
:1010F00000F0A8FFFFF768FF4EF20013CEF20003E6
:101100004EF20012CEF20002126842F080721A60B3
:101110004FF0010000F0E2FFBD4680BD80B483B017
:1011200000AF786039607B684FF000021A607B681E
:101130004FF000025A607B683A689A6007F10C072A
:10114000BD4680BC704700BF80B485B000AF7860FA
:101150000B46FB707B681B6803F101024FEAE273E8
:101160004FEA53631A4402F07F02C3EB0203FB60B1
:101170007B685A68FB689A4202D14FF000030BE08B
:101180007B689A687B681B681344FA781A707B68DE
:10119000FA681A604FF00103184607F11407BD46BC
:1011A00080BC704780B485B000AF786039607B68E0
:1011B0001A687B685B689A4202D14FF000031AE01C
:1011C0007B685B6803F101024FEAE2734FEA536305
:1011D0001A4402F07F02C3EB0203FB607B689A684B
:1011E0007B685B6813441A783B681A707B68FA68FE
:1011F0005A604FF00103184607F11407BD4680BC42
:10120000704700BF80B483B000AF78607B681B6814
:1012100003F180027B685B68C3EB02024FEAE27372
:101220004FEA53631A4402F07F02C3EB02031846ED
:1012300007F10C07BD4680BC704700BF80B582B087
:1012400000AF78607868FFF7DDFF0346C3F17F03E6
:10125000184607F10807BD4680BD00BF80B582B0C3
:1012600000AF43F2A013C0F200033B6040F2000362
:10127000C1F200037B600BE03B681A687B681A6070
:101280007B6803F104037B603B6803F104033B606C
:101290007A6840F21803C1F200039A42ECD340F29C
:1012A0002403C1F200033B6007E03B684FF00002FB
:1012B0001A603B6803F104033B603A6844F2F02390
:1012C000C1F200039A42F0D3FFF750FDFEE700BFE2
:1012D00080B400AFFEE700BF80B485B000AF034626
:1012E000FB71FA7941F68023C0F2060303FB02F397
:1012F000FB60FB6803F1FF33FB60FB68002BF8D158
:1013000007F11407BD4680BC704700BF80B400AF32
:101310004CF20003C4F202034FF000021A604CF2D8
:101320000403C4F202034FF000021A604CF20803F7
:10133000C4F202034FF000021A604CF20C03C4F234
:1013400002034FF000021A604CF21003C4F20203D1
:101350004FF000021A604CF21C03C4F202034FF07B
:1013600000021A604CF22003C4F202034FF00002A4
:101370001A604CF22403C4F202034FF000021A6018
:101380004CF22803C4F202034FF000021A604CF240
:101390000003C2F209034FF400621A604CF220030A
:1013A000C2F2090340F21372CAF200021A604CF250
:1013B0004003C2F209034FF400721A604CF260035A
:1013C000C2F209034FF000021A604CF28003C2F22D
:1013D00009034FF040521A604CF21403C2F20903A1
:1013E0004FF000021A604CF23403C2F209034FF0CE
:1013F00000021A604CF25403C2F209034FF00002DB
:101400001A604CF27403C2F209034FF000021A6032
:101410004CF29403C2F209034FF000021A60BD4679
:1014200080BC704780B500AFFFF770FF00F08CF80C
:1014300000F09CF9BD4680BD80B400AF4CF20003C3
:10144000C4F202034CF20002C4F20202126822F05B
:10145000404242F000421A604CF20403C4F202031C
:101460004CF20402C4F20202126822F0030242F0BB
:1014700002021A604CF20403C4F202034CF20402AA
:10148000C4F20202126822F00C0242F008021A6052
:101490004CF20403C4F202034CF20402C4F202024E
:1014A000126822F0300242F020021A604CF2580317
:1014B000C2F209034FF400721A6048F20003C4F24A
:1014C00008034FF0C7021A6048F20403C4F208038D
:1014D0004FF00C021A60BD4680BC704780B400AF6C
:1014E0004CF20403C4F202034CF20402C4F20202FE
:1014F000126822F470121A604CF20003C2F209035F
:101500004CF20002C2F20902126822F0C0621A60B4
:101510004CF24403C4F202034CF24402C4F202024D
:10152000126842F420121A604CF24403C4F202031F
:101530004CF24402C4F20202126822F4A0121A60B1
:10154000BD4680BC704700BF80B500AFFFF7C6FF47
:101550004CF23803C2F209034FF000521A604FF008
:101560000100FFF7B9FE4CF23803C2F209034FF451
:1015700080721A604CF23803C2F209034FF0010284
:101580001A60BD4680BD00BF80B483B000AF4FF08D
:101590000A037B607B6803F1FF337B607B68002B71
:1015A000F8D107F10C07BD4680BC704780B584B008
:1015B00000AF03463960FB71FB7903F1FF334FF055
:1015C000010202FA03F3FB604CF23C03C2F209038E
:1015D0004FF480721A6037E03A68FB6802EA03034E
:1015E000002B07D04CF23803C2F209034FF480629B
:1015F0001A6006E04CF23C03C2F209034FF4806229
:101600001A603B684FEA43033B60FFF7BDFF4CF2B3
:101610003803C2F209034FF400721A604CF234032B
:10162000C2F209031B6803F48043002B03D03B681C
:1016300043F001033B60FFF7A7FF4CF23C03C2F20B
:1016400009034FF400721A60FB79002B0CBF0023D2
:101650000123DBB2FA7902F1FF32FA71002BBBD120
:10166000FFF792FF4CF23803C2F209034FF4807285
:101670001A603B68184607F11007BD4680BD00BFE1
:1016800080B586B000AF0346FB71FB796FEA436318
:101690006FEA5363DBB24FEA03437B614FF01800FC
:1016A0007969FFF783FF0346FB60FB687B827B8AD7
:1016B000184607F11807BD4680BD00BF80B584B04D
:1016C00000AF03463960FB71FB794FEA03431A46CA
:1016D0003B6842EA0303FB604FF01800F968FFF72C
:1016E00065FF07F11007BD4680BD00BF80B500AFA4
:1016F0004FF008004FF00001FFF758FF0346DBB240
:101700001846BD4680BD00BF80B582B000AF03461D
:10171000FB71FB794FF008001946FFF747FF0346BE
:10172000DBB2184607F10807BD4680BD80B500AFA3
:101730004FF000004FF00001FFF7C0FF4FF0000036
:10174000FFF79EFF0346002BF8D14FF000004FF447
:101750000041FFF7B3FF4FF00000FFF791FF034692
:10176000B3F5004FF7D1BD4680BD00BF80B500AFD7
:101770004CF20003C4F20F0344F23A021A604CF236
:101780000C13C4F20F034FF000021A604CF28003F6
:10179000C4F20F034CF28002C4F20F02126822F06E
:1017A00002021A604CF28C03C4F20F034FF0AA023B
:1017B0001A604CF28C03C4F20F034FF055021A600A
:1017C0004CF28803C4F20F031B6803F00073002B74
:1017D000F6D14CF28003C4F20F034CF28002C4F243
:1017E0000F02126822F001021A604CF28C03C4F25C
:1017F0000F034FF0AA021A604CF28C03C4F20F03DD
:101800004FF055021A604CF28803C4F20F031B68B4
:1018100003F08073002BF6D14CF20413C4F20F03D3
:101820004FF000021A60FFF781FF4FF0080047F603
:101830007031FFF743FF4FF06000FFF765FFFFF7E0
:1018400055FF034603F04003002BF8D04CF2A013E1
:10185000C4F20F034FF020021A604CF2A013C4F23E
:101860000F031B6803F04003002BF6D04CF2A813C3
:10187000C4F20F034FF008021A604CF2AC13C4F22A
:101880000F034FF000021A604CF20C13C4F20F0366
:101890004FF001021A604CF28403C4F20F0340F2CD
:1018A0001802C0F201021A604CF28C03C4F20F035A
:1018B0004FF0AA021A604CF28C03C4F20F034FF0EF
:1018C00055021A604CF28003C4F20F034CF28002FE
:1018D000C4F20F02126842F001021A604CF28C034B
:1018E000C4F20F034FF0AA021A604CF28C03C4F248
:1018F0000F034FF055021A604CF28803C4F20F0335
:101900001B6803F08073002BF6D04CF20413C4F272
:101910000F034FF003021A604CF28003C4F20F036E
:101920004CF28002C4F20F02126842F002021A6006
:101930004CF28C03C4F20F034FF0AA021A604CF26F
:101940008C03C4F20F034FF055021A604CF2880367
:10195000C4F20F031B6803F00073002BF6D04CF2A7
:10196000A403C4F20F034FF022021A604CF2AC033E
:10197000C4F20F034FF0AA021A604CF2AC03C4F297
:101980000F034FF055021A604CF2A003C4F20F038C
:101990004CF2A002C4F20F02126842F001021A6077
:1019A0004CF2AC03C4F20F034FF0AA021A604CF2DF
:1019B000AC03C4F20F034FF055021A604CF2A803B7
:1019C000C4F20F031B6803F48073002BF6D04CF2B3
:1019D000A803C4F20F031B6803F48063002BF6D046
:1019E0004CF2A003C4F20F034CF2A002C4F20F02A7
:1019F000126842F002021A604CF2AC03C4F20F0308
:101A00004FF0AA021A604CF2AC03C4F20F034FF07D
:101A100055021A604CF2A803C4F20F031B6803F4CA
:101A20000073002BF6D0BD4680BD00BF80B586B0E8
:101A300000AFF860B9607A60FB681B784FEA531317
:101A4000DBB203F003037B617A6940F2E013C1F279
:101A5000000353F822303B613B69002B02D14FF069
:101A6000000305E03B69F868B9687A68984703465F
:101A7000184607F11807BD4680BD00BF80B584B089
:101A800000AF0346FB714FF080004FF0010100F002
:101A900063FB40F2CC13C1F20003BB604FF00003C4
:101AA000FB6003E0FB6803F10103FB60FB68072BAD
:101AB000F8DD07F11007BD4680BD00BF80B582B0DC
:101AC00000AF40F2D813C1F200031B68402BA8BF3F
:101AD00040237B6040F2D413C1F200031B684FF037
:101AE000800019467A6800F05DFB40F2D413C1F221
:101AF00000031A687B681A4440F2D413C1F2000351
:101B00001A6040F2D813C1F200031A687B68C3EB75
:101B1000020240F2D813C1F200031A6007F108076D
:101B2000BD4680BD80B584B000AF02460B46FA7159
:101B3000BB71FB79002B40F0F680BB7903F0040306
:101B4000002B74D04FF0000040F2CC11C1F2000124
:101B50004FF0080200F08EFB40F2CC13C1F20003FC
:101B60001B784FEA5313DBB203F00303FB60FA6800
:101B700040F2F013C1F2000353F8222040F2D413D4
:101B8000C1F200031A6040F2CC13C1F20003DB88FB
:101B90001A4640F2D813C1F200031A6040F2CC1387
:101BA000C1F20003DB881A4640F2DC13C1F20003E5
:101BB0001A6040F2CC13C1F20003DB88002B0AD07C
:101BC00040F2CC13C1F200031B784FEAD313DBB20F
:101BD000012B40F0AE8040F2CC10C1F2000040F288
:101BE000DC11C1F2000140F2D412C1F20002FFF791
:101BF0001DFF0346002B04D1BB791846FFF73EFFBB
:101C00009AE040F2CC13C1F20003DB881A4640F29E
:101C1000DC13C1F200031B689A42A8BF1A4640F2C7
:101C2000D813C1F200031A60FFF748FF84E040F2C6
:101C3000D813C1F200031B68002B69DD40F2D413F6
:101C4000C1F200031A6840F2D813C1F200031B6806
:101C50004FF0000011461A4600F00CFB0346BB6033
:101C6000BB68002B04DABB791846FFF707FF63E077
:101C700040F2D413C1F200031A68BB681A4440F260
:101C8000D413C1F200031A6040F2D813C1F200036A
:101C90001A68BB68C3EB020240F2D813C1F200031A
:101CA0001A6040F2D813C1F200031B68002B42D126
:101CB00040F2CC13C1F200031B784FEA5313DBB29E
:101CC00003F00303FB60FA6840F2F013C1F2000373
:101CD00053F8222040F2D413C1F200031A6040F2FC
:101CE000CC10C1F2000040F2DC11C1F2000140F260
:101CF000D412C1F20002FFF799FE0346002B04D173
:101D0000BB791846FFF7BAFE16E0FFF7D7FE13E0DF
:101D10004FF000004FF000014FF0000200F0AAFA6F
:101D20000346BB6008E0FB79802B05D1FFF7C6FEB8
:101D300002E000BF00E000BF07F11007BD4680BD14
:101D400080B485B000AFF860B9607A60FA6840F29C
:101D5000E013C1F20003B96843F82210FA6840F2B8
:101D6000F013C1F20003796843F8221007F1140759
:101D7000BD4680BC704700BF80B483B000AF03464F
:101D8000FB7107F10C07BD4680BC704780B500AF02
:101D900000F04CFC41F67950C0F2000000F052F91E
:101DA0004FF0000041F62531C0F2000100F008F9C3
:101DB0004FF0800041F62531C0F2000100F000F93B
:101DC0004FF000004FF0400100F0D8F84FF08000D5
:101DD0004FF0400100F0D2F84FF0000042F6D15130
:101DE000C0F2000140F20022C1F20002FFF7A8FF9A
:101DF0004FF001031846BD4680BD00BF80B483B0DC
:101E000000AF78604CF20023C5F200031A687B68CB
:101E100002EA03027B689A42F4D14CF20823C5F22D
:101E200000037A681A6007F10C07BD4680BC704752
:101E300080B582B000AF0346FB714CF20823C5F2B7
:101E400000034FF030021A604CF21023C5F2000379
:101E5000FA794FEA024242F4A0621A604FF0100091
:101E6000FFF7CCFF07F10807BD4680BD80B582B003
:101E700000AF02460B46FA71BB80FB791846FFF7AC
:101E8000D7FF4CF21023C5F20003BA884FEA024292
:101E900042F480721A604FF01000FFF7AFFF07F1B5
:101EA0000807BD4680BD00BF80B582B000AF0346C5
:101EB000FB71FB791846FFF7BBFF4CF21023C5F20C
:101EC0000003FA794FEA024242F400721A604FF0BE
:101ED0002000FFF793FF4CF21423C5F200031B68A8
:101EE000DBB2184607F10807BD4680BD80B582B059
:101EF00000AF78600B467B804CF24423C5F20003B0
:101F00004CF24422C5F2000211684FF001007A68D9
:101F100000FA02F241EA02021A604CF24823C5F2CA
:101F200000037A681A604CF24C23C5F200037A88E9
:101F30001A604FF48070FFF761FF07F10807BD4694
:101F400080BD00BF80B582B000AF786039607B682B
:101F5000DBB243F04003DBB2DAB23B68002B02D0C5
:101F60004FF0000301E04FF0200310461946FFF741
:101F70007DFF07F10807BD4680BD00BF80B584B076
:101F800000AF02460B46FA71BB80FB7903F00F03EA
:101F90004FEA4302FB794FEAD313DBB242EA030371
:101FA000FB60BB88F8681946FFF7A0FFF8684FF0A0
:101FB0000101FFF7C7FF07F11007BD4680BD00BF55
:101FC00080B485B000AF03463960FB71FB7903F044
:101FD0000F034FEA4302FB794FEAD313DBB242EA25
:101FE0000303FB60FB684FEAD37213444FEA6303B9
:101FF0001A4640F20C23C1F20003396843F822105C
:102000004CF23423C5F200034CF23422C5F2000234
:1020100011684FF00100FA6800FA02F241EA020288
:102020001A604CF20423C5F200034CF20422C5F2FC
:102030000002126842F004021A6007F11407BD465C
:1020400080BC704780B483B000AF786040F2082352
:10205000C1F200037A681A604CF20423C5F200034F
:102060004CF20422C5F20002126842F008021A6023
:1020700007F10C07BD4680BC704700BF80B483B039
:1020800000AF786040F24C23C1F200037A681A6016
:102090004CF20423C5F200034CF20422C5F2000204
:1020A000126842F001021A6007F10C07BD4680BCBD
:1020B000704700BF80B582B000AF0346FB71FB796B
:1020C0006FEA43636FEA5363DBB24FF0D000194607
:1020D000FFF7CCFE07F10807BD4680BD80B582B092
:1020E00000AF78607B68002B0CBF002301234FF00A
:1020F000FE001946FFF7BAFE07F10807BD4680BD8E
:1021000080B582B000AF0346FB71FB794FF0F3005E
:102110001946FFF7ABFE07F10807BD4680BD00BFBB
:1021200080B584B000AF0346FB71FB7903F00F0369
:102130004FEA4302FB794FEAD313DBB242EA0303CF
:10214000FB60FB68DBB21846FFF7AEFE034618469D
:1021500007F11007BD4680BD80B584B000AF0346CF
:102160003960FB71FB7903F00F034FEA4302FB79FF
:102170004FEAD313DBB242EA0303FB60FB68DBB236
:1021800043F04003DBB2DAB23B68002B0CBF002304
:10219000012310461946FFF769FE07F11007BD46F7
:1021A00080BD00BF80B586B000AF0346B9607A60DD
:1021B000FB73FB7B03F00F034FEA4302FB7B4FEA09
:1021C000D313DBB242EA03037B614CF22823C5F24E
:1021D0000003FA7B02F00F024FEA820242F0020291
:1021E0001A604CF22423C5F200037A681A6022E0D8
:1021F0004CF21C23C5F20003BA6802F10302127804
:102200004FEA0261BA6802F1020212784FEA024212
:1022100041EA0201BA6802F1010212784FEA022291
:1022200041EA0201BA68127841EA02021A60BB6808
:1022300003F10403BB604CF22823C5F200031B68C2
:1022400003F00203002BD3D14CF22823C5F2000384
:102250004FF000021A607B69DBB21846FFF7E8FD19
:102260004FF0FA00FFF7E4FD7B68184607F1180706
:10227000BD4680BD80B588B000AF0346B9607A60C6
:10228000FB73FB7B03F00F034FEA4302FB7B4FEA38
:10229000D313DBB242EA03037B614CF22823C5F27D
:1022A0000003FA7B02F00F024FEA820242F00102C1
:1022B0001A604CF22023C5F200031B68FB61FB6926
:1022C00003F40063002BF4D0FB6903F48063002B5C
:1022D00002D14FF0FF3341E0FB694FEA83534FEAED
:1022E0009353FB614FF00003BB614FF000033B6170
:1022F0001FE03B6903F00303002B05D14CF21823C8
:10230000C5F200031B68BB61BB68002B09D03A69AA
:102310007B689A4205DA3A69BB681344BA69D2B25B
:102320001A70BB694FEA1323BB613B6903F10103D8
:102330003B613A69FB699A42DBD34CF22823C5F230
:1023400000034FF000021A607B69DBB21846FFF70A
:102350006FFD4FF0F200FFF76BFDFB69184607F1C8
:102360002007BD4680BD00BF80B58AB000AF0346E0
:10237000B9607A60FB73FB7B03F00F034FEA430203
:10238000FB7B4FEAD313DBB242EA0303BB614CF29F
:102390002823C5F20003FA7B02F00F024FEA820203
:1023A00042F001021A6000BF4CF22023C5F2000384
:1023B0001B687B627B6A03F40063002B09D14CF23B
:1023C0002823C5F200034FF000021A604FF0FF33DC
:1023D00050E07B6A03F48063002B09D14CF2282380
:1023E000C5F200034FF000021A604FF0FF3341E0E6
:1023F0007B6A4FEA83534FEA93537B624FF00003AB
:102400003B624FF000037B611FE07B6903F0030335
:10241000002B05D14CF21823C5F200031B683B6268
:10242000BB68002B09D07A697B689A4205DA7A6921
:10243000BB6813443A6AD2B21A703B6A4FEA13235C
:102440003B627B6903F101037B617A697B6A9A4293
:10245000DBD34CF22823C5F200034FF000021A60D0
:10246000BB69DBB21846FFF7E3FC4FF0F200FFF761
:10247000DFFC7B6A184607F12807BD4680BD00BF18
:1024800080B582B000AF78607B68002B0CBF002362
:1024900001234FF0D8001946FFF7E8FC07F10807C1
:1024A000BD4680BD80B586B000AF4CF20023C5F2BA
:1024B00000031B687B607B6803F00103DBB2002B29
:1024C0001BD04CF20823C5F200034FF001021A6042
:1024D00040F24C23C1F200031B68002B0DD04FF0DB
:1024E000F500FFF7E1FC0346FB8240F24C23C1F20A
:1024F00000031B68FA8A104698477B6803F00803BC
:10250000002B24D04CF20823C5F200034FF0080240
:102510001A604FF0FE00FFF7C7FC0346BB73BB7B9E
:1025200003F01A03002B12D0BB7B03F01503FB73DF
:1025300040F20823C1F200031B68002B07D040F2D1
:102540000823C1F200031B68FA7B104698477B689A
:1025500003F00403002B64D04CF20823C5F20003FF
:102560004FF004021A604FF000033B6156E04FF059
:1025700001023B6902FA03F3BB604CF23023C5F25F
:1025800000031A68BB6802EA0303002B42D04CF236
:102590003823C5F20003BA681A604FF02000FFF735
:1025A0002DFC4CF21423C5F200031B687B737B7B6C
:1025B00003F01F03FB733B694FEAD37213444FEAE6
:1025C00063031A4640F20C23C1F2000353F8223091
:1025D000002B1FD03B694FEAD37213444FEA6303C9
:1025E0001A4640F20C23C1F2000353F822203B6943
:1025F0004FEAC313D9B23B694FEA6303DBB2DBB2E4
:1026000003F00F0341EA0303DBB2D9B2FB7B0846B8
:10261000194690473B6903F101033B613B691F2B5E
:10262000A5DD07F11807BD4680BD00BF80B500AF2E
:102630004CF21003C4F202034CF21002C4F2020284
:10264000126822F4402242F480221A604CF20C03F9
:10265000C4F202034CF20C02C4F20202126822F02D
:10266000300242F010021A604CF20C03C4F2020372
:102670004CF20C02C4F20202126822F0405242F004
:1026800000521A604CF20403C4F202034CF204023A
:10269000C4F20202126822F0406242F080621A60C4
:1026A0004CF20403C4F202034CF20402C4F202022C
:1026B000126822F0405242F080521A604CF2C40379
:1026C000C4F20F034CF2C402C4F20F02126842F0CB
:1026D00000421A604CF6F473C5F200034CF6F47233
:1026E000C5F20002126842F012021A604CF6F8734A
:1026F000C5F200031B6803F00203002BF6D04CF672
:10270000F873C5F200031B6803F01003002BF6D02A
:102710004CF20423C5F200034FF000021A604CF2A1
:102720000823C5F200034FF0FF321A604CF22C234D
:10273000C5F200034FF000021A604CF23423C5F2D8
:1027400000034FF000021A604CF23823C5F2000378
:102750004FF0FF321A604CF24023C5F200034FF0F5
:1027600000021A604FF00000FFF7CAFC4FF00103AF
:102770001846BD4680BD00BF80B485B000AFF8608C
:10278000B960FA71BB80FB6803F104034FF00002EB
:102790001A60BA68FB681A60FB6803F10402FB6800
:1027A00003F104031968BB884FEA83534FEA93533C
:1027B0004FEA431341EA03031360FB6803F1040388
:1027C000FA6802F1040211683A8B4FEA024241EAC8
:1027D00002021A60FB79002B09D0FB6803F10403A5
:1027E000FA6802F10402126842F010021A60BB6833
:1027F000002B09D0FB6803F10403FA6802F104021C
:10280000126842F004021A60FB6803F10803FA69D7
:102810001A60FB79002B07D03B6A002B04D0FB68C1
:1028200003F110033A6A1A60FB6803F10C034FF0DE
:1028300000021A6007F11407BD4680BC704700BF54
:1028400080B485B000AF0346FB71FB7903F00F0342
:102850004FEA4302FB794FEAD313DBB242EA0303A8
:10286000FB604CF28C23C5F200034FF00101FA68C3
:1028700001FA02F21A6007F11407BD4680BC7047E6
:1028800080B485B000AF0346FB71FB7903F00F0302
:102890004FEA4302FB794FEAD313DBB242EA030368
:1028A000FB604CF28823C5F200034FF00101FA6887
:1028B00001FA02F21A6007F11407BD4680BC7047A6
:1028C00080B487B000AFF860B960FA80BB80FB8845
:1028D000FB824FF00003BB8219E0BB8A4FEA830200
:1028E000FB681A44FB8A4FEA034343F40041BB8868
:1028F0004FEA83534FEA935341EA03031360FB8A81
:1029000003F10103FB82BB8A03F10103BB82BA8A94
:10291000BB689A42E1D307F11C07BD4680BC7047F3
:1029200080B485B000AF0346B9607A60FB73FB7B6F
:1029300003F00F034FEA4302FB7B4FEAD313DBB2F2
:1029400042EA03034FEA8302BB6813447A681A60C1
:1029500007F11407BD4680BC704700BF80B485B046
:1029600000AF78604FF00003FB600BE0FB684FEABC
:1029700083027B6813444FF000021A60FB6803F186
:102980000103FB60FB681F2BF0DD4CF28023C5F2D6
:1029900000037A681A6007F11407BD4680BC7047CF
:1029A00080B483B000AF786040F25823C1F20003D6
:1029B0007A681A6007F10C07BD4680BC704700BFFB
:1029C00080B489B000AFBA607B600346FB810B46E0
:1029D000BB81FB894FEA13239BB2BB75FB89FB7557
:1029E00040F25823C1F200031B68BB614FF00003A3
:1029F000FB6131E0BB6903F101031B78BA7D9A42A8
:102A000025D1FA7DFB699A421DD17B68BA691A60AB
:102A1000BB7D022B0FD1BB6903F102031B781A4661
:102A2000BB6903F103031B784FEA032342EA030265
:102A3000BB681A6004E0BB691B781A46BB681A6061
:102A40004FF001030EE0FB6903F10103FB61BB6979
:102A50001B78BA691344BB61BB691B78002BC9D1D1
:102A60004FF00003184607F12407BD4680BC7047AD
:102A700080B586B000AF02460B46FA71BB71FB7998
:102A8000002B04D14FF00000FFF7FAFC52E040F2B7
:102A90005823C1F200031B68FB604FF0FF33FB7447
:102AA0004FF0FF333B753DE0FB6803F101031B78FA
:102AB000042B09D0052B0DD0022B2ED1FB6803F17E
:102AC00005031B78FB7428E0FB6803F103031B7804
:102AD0003B7522E0FA7CFB799A421ED13A7DBB79A4
:102AE0009A421AD1FB6803F102031B787B75FB68DD
:102AF00003F104031B781A46FB6803F105031B78F6
:102B00004FEA03239BB242EA03039BB2FB827A7D26
:102B1000FB8A10461946FFF731FAFB681B78FA6802
:102B20001344FB60FB681B78002BBDD14FF0010004
:102B3000FFF7A6FC4FF00103184607F11807BD4642
:102B400080BD00BF80B586B000AFF860B9607A6024
:102B50007B681B687B61FB685B78092B61D801A2ED
:102B600052F823F08D2B0000172C0000232C0000BE
:102B7000172C0000232C0000AB2B0000B92B000009
:102B80001D2C0000D12B0000E92B00007B694FF0C9
:102B900000021A707B6903F101034FF000021A7002
:102BA000BB684FF002021A603EE0FB685B88DBB254
:102BB0001846FFF77FFA37E0FB685A88FB689B8866
:102BC00010461946BA687B68FFF7FAFE03462DE007
:102BD00040F25023C1F200031A787B691A70BB6877
:102BE0004FF001021A601FE0FB685B88DBB21846F9
:102BF0004FF00001FFF73CFF0346002B02D14FF0DE
:102C0000000313E0FB685B88DAB240F25023C1F2A4
:102C100000031A7008E04FF0000307E04FF00003D4
:102C200004E04FF0000301E04FF00103184607F104
:102C30001807BD4680BD00BF80B487B000AFF86004
:102C4000B9607A607B681B687B61FB685B780B2BE3
:102C500041D801A252F823F0892C0000A72C0000D3
:102C6000D72C0000A72C0000D72C0000D72C000088
:102C7000D72C0000D72C0000D72C0000D72C000048
:102C8000AD2C0000BF2C00007B694FF000021A70D1
:102C90007B6903F101034FF000021A70BB684FF02B
:102CA00002021A601AE04FF0000319E07B694FF04E
:102CB00000021A70BB684FF001021A600EE0FB6858
:102CC0005B88002B02D04FF0000309E0BB684FF097
:102CD00000021A6002E04FF0000301E04FF0010330
:102CE000184607F11C07BD4680BC704780B586B00A
:102CF00000AFF860B9607A607B681B687B61FB6835
:102D00005B780C2B59D801A252F823F0412D00001A
:102D1000752D0000BB2D0000952D0000BB2D00007F
:102D2000BB2D0000BB2D0000BB2D0000BB2D000003
:102D3000BB2D0000BB2D0000BB2D0000B52D0000F9
:102D4000FB689B88DBB21846FFF7EAF9034603F0FD
:102D50000203002B0CBF002201227B691A707B69E1
:102D600003F101034FF000021A70BB684FF002023A
:102D70001A6025E0FB685B88002B08D1FB689B8804
:102D8000DBB218464FF00001FFF7E6F918E04FF00C
:102D9000000317E0FB685B88002B08D1FB689B8869
:102DA000DBB218464FF00101FFF7D6F908E04FF00B
:102DB000000307E04FF0000304E04FF0000301E0E0
:102DC0004FF00103184607F11807BD4680BD00BF4C
:102DD00080B584B000AFF860B9607A6040F25423E7
:102DE000C1F200031B68002B0ED040F25423C1F245
:102DF00000031B68F868B9687A6898470346002B97
:102E000002D04FF0010320E0FB681B7803F01F03A2
:102E1000012B0AD0022B0FD0002B14D1F868B9680F
:102E20007A68FFF78FFE03460FE0F868B9687A68A2
:102E3000FFF702FF034608E0F868B9687A68FFF711
:102E400055FF034601E04FF00003184607F1100755
:102E5000BD4680BD80B483B000AF786040F254239B
:102E6000C1F200037A681A6007F10C07BD4680BC06
:102E7000704700BF032A2DE9F0070BD83AB10023B1
:102E800011F803C000F803C001339342F8D1BDE844
:102E9000F007704782180C46034603E014F8011C43
:102EA00003F8011C03F003061946A446013301345C
:102EB000002EF3D11CF00304634608BFC1EB020CE3
:102EC00068D06542C4F1040A0CEB050733464FEAAB
:102ED000CA0A5CF805604FEAC408551A08E057F8BA
:102EE000044F264604FA0AF449EA0404CC50043399
:102EF0005C18032D26FA08F9A5F104050CEB03066E
:102F0000EDDC002302E0F15CE15401331919914238
:102F1000F9D3BCE753F8404C41F8404C53F83C4CD3
:102F200041F83C4C53F8384C41F8384C53F8344C89
:102F300041F8344C53F8304C41F8304C53F82C4C99
:102F400041F82C4C53F8284C41F8284C53F8244CA9
:102F500041F8244C53F8204C41F8204C53F81C4CB9
:102F600041F81C4C53F8184C41F8184C53F8144CC9
:102F700041F8144C53F8104C41F8104C53F80C4CD9
:102F800041F80C4C53F8084C41F8084C53F8044CE9
:102F900041F8044C1C460D4640334031BCF13F0F14
:102FA000ACF1400CB6DC21462B46541B0FE051F827
:102FB000105C43F8105C51F80C5C43F80C5C51F861
:102FC000085C43F8085C51F8045C43F8045C0F2C7F
:102FD0000D469C4601F1100103F11003A4F1100409
:102FE000E5DCCCEB0201002303E0EC584CF8034095
:102FF00004335E19032903EB0C04A1F10401F4DC92
:103000007FE700BF12010002FF000040FFFF040045
:1030100000010102030109022000010100803209C0
:1030200004000002FF0000000705820240000007C4
:10303000050502400000040309044403680074000D
:10304000740070003A002F002F00750062006500C8
:10305000720074006F006F00740068002E0073002F
:103060006F00750072006300650066006F007200FB
:10307000670065002E006E00650074002F001E03BF
:1030800062006C007500650074006F006F007400D2
:1030900068005F007200780074007800120330004E
:1030A00030003000300030003000300031000000CF
:1030B0001201010102000040FFFF050000010102B2
:1030C000030109024300020100C0320904000001AB
:1030D000020201000524001001052401010104245D
:1030E000020205240600010705810308000A0904FD
:1030F0000100020A00000007050502400000070564
:103100008202400000040309044403680074007450
:103110000070003A002F002F0075006200650072F9
:103120000074006F006F00740068002E0073006F61
:1031300000750072006300650066006F0072006732
:103140000065002E006E00650074002F00220355FC
:103150000062006500720074006F006F0074006808
:10316000002000730065007200690061006C0012AD
:1031700003300030003000300030003000300031CB
:04318000000000004B
:0C318400F8B500BFF8BC08BC9E467047C0
:0C319000F8B500BFF8BC08BC9E467047B4
:04319C00000000002F
:1031A00000000000F11FFF1FB84200107442001021
:0831B00000C20100000008004C
:0431B800F90000001A
:0431BC00CD00000042
:0431C000000000000B
:040000030000125D8A
:00000001FF
